:100000000C943A010C9457010C9457010C9457012D
:100010000C9457010C9457010C9457010C94570100
:100020000C9457010C9457010C9457010C945701F0
:100030000C9457010C9457010C9457010C945701E0
:100040000C9457010C9457010C945C230C945701A9
:100050000C9457010C9457010C9457010C945701C0
:100060000C9457010C9457014D4D432F5344206974
:100070006E697469616C697A6174696F6E2066611A
:10008000696C65640A006F70656E696E67207061E7
:1000900072746974696F6E206661696C65640A00C8
:1000A0006F70656E696E672066696C6573797374CD
:1000B000656D206661696C65640A006F70656E69C4
:1000C0006E6720726F6F74206469726563746F72FB
:1000D00079206661696C65640A00696E6974006301
:1000E0006420006469726563746F7279206E6F7446
:1000F00020666F756E643A20006C73006361742033
:10010000006572726F72206F70656E696E67200095
:100110006469736B006572726F72207265616469E5
:100120006E67206469736B20696E666F0A00726D7A
:1001300020006572726F722064656C6574696E6709
:100140002066696C653A2000746F756368200065ED
:1001500072726F72206372656174696E672066697E
:100160006C653A20006D7620006572726F72206DAA
:100170006F76696E672066696C653A2000777269F0
:10018000746520006572726F72206F70656E696EA3
:100190006720006572726F72207365656B696E67A8
:1001A000206F6E20006572726F72207772697469B9
:1001B0006E6720746F2066696C650A006D6B6469F8
:1001C0007220006572726F72206372656174696E6D
:1001D00067206469726563746F72793A200073797D
:1001E0006E63006572726F722073796E63696E67F9
:1001F000206469736B0A00756E6B6E6F776E206397
:100200006F6D6D616E643A20006D616E75663A20A7
:10021000203078006F656D3A202020200070726FCA
:10022000643A202020007265763A20202020007356
:10023000657269616C3A20307800646174653A20B7
:1002400020200073697A653A202020004D420A0080
:10025000636F70793A2020200077722E70722E3AE8
:100260002000666F726D61743A2000667265653AAF
:100270002020200011241FBECFEFD4E0DEBFCDBF71
:1002800011E0A0E0B1E0EEEAFFE402C005900D92BB
:10029000A031B107D9F714E0A0E1B1E001C01D928F
:1002A000AE30B107E1F70E945D230C94D5270C9482
:1002B0000000AF92BF92CF92DF92EF92FF920F9326
:1002C0001F93CF93DF9300D000D000D0CDB7DEB71F
:1002D000FC01009709F499C0423051056105710590
:1002E00008F493C0A081B18118968C9118978A0167
:1002F0009B01922F8B3009F045C0832F9A01492F23
:10030000582F60E070E080E090E002E00E94152746
:10031000A284B384C484D584E684F78400891189D7
:100320000E943327ED91FC91B4E0EB2EF12C8E016D
:100330000F5F1F4F0995882309F467C009811A814F
:100340002B813C81011511052105310509F45DC0A2
:10035000073F8FEF180728078FE0380709F455C0CB
:10036000D901C801805F9F4FAF4FBF400797A105DC
:10037000B10508F44AC0D901C801885F9F4FAF4F4B
:10038000BF403FC0832F9A01492F582F60E070E093
:1003900080E090E001E00E941527A284B384C48429
:1003A000D584E684F784008911890E943327ED9172
:1003B000FC91A2E0EA2EF12C8E010B5F1F4F0995F4
:1003C000882319F10D811E8120E030E0011511050F
:1003D00021053105D1F0073F8FEF180721053105C1
:1003E000A1F0D901C801805F9F4FA109B10907970A
:1003F000A105B10550F0D901C801885F9F4FA1093F
:10040000B1090897A105B10518F400E010E09801C2
:10041000B801C90126960FB6F894DEBF0FBECDBF56
:10042000DF91CF911F910F91FF90EF90DF90CF90D0
:10043000BF90AF9008952F923F924F925F926F922C
:100440007F928F929F92AF92BF92CF92DF92EF9264
:10045000FF920F931F93CF93DF93CDB7DEB76497CF
:100460000FB6F894DEBF0FBECDBF1C012A013B01C1
:10047000009709F4FCC0423051056105710508F48C
:10048000F6C0D1011A96BC91BF83F101F385F887BC
:10049000D1011C96BC91B987F101F585FA87D1018C
:1004A0001E96BC91BB87F101F785FC87D101509660
:1004B000BC91BD87F101F189FE87D101ED91FC91DD
:1004C00080858B3009F07EC0530142019201A50165
:1004D00060E070E080E090E002E00E941527AF80CD
:1004E000B884C984DA84EB84FC840D851E850E945F
:1004F00033272F87388B498B5A8B6B8B7C8B6C0106
:10050000D101ED91FC910190F081E02D94E0E92E74
:10051000F12C8E010F5F1F4FC6010995882309F446
:10052000A6C089809A80AB80BC8081149104A1040C
:10053000B10409F49AC0D501C401805F9F4FAF4F49
:10054000BF400897A105B10508F491C0B501A40109
:10055000485F5F4F6F4F7F4048305105610571051F
:1005600018F4812C912C5401F10146A557A560A9DE
:1005700071A9452B462B472B21F446A657A660AA06
:1005800071AA19821A821B821C82D101ED91FC9101
:100590000480F581E02D84E0E82EF12C8E010F5FC0
:1005A0001F4F2F85388949895A896B897C89C601F3
:1005B00009952401350181149104A104B10409F0C5
:1005C00083CF53C0530142019201A50160E070E066
:1005D00080E090E001E00E941527AF80B884C984D4
:1005E000DA84EB84FC840D851E850E943327390153
:1005F0004A015B016C01D101ED91FC910190F08108
:10060000E02D02E0E02EF12C8E010B5F1F4F0995CB
:10061000882369F14D805E804114510431F1C2019B
:100620004096089720F1B8EF4B16BFEF5B0610F02D
:10063000412C512C1E821D82D101ED91FC91048030
:10064000F581E02D12E0E12EF12C8E010B5F1F4FA2
:100650009301A401B501C6010995612C712C4114C7
:1006600051046104710409F0ADCF81E001C080E064
:1006700064960FB6F894DEBF0FBECDBFDF91CF9169
:100680001F910F91FF90EF90DF90CF90BF90AF90B0
:100690009F908F907F906F905F904F903F902F90A2
:1006A00008952F923F924F925F926F927F928F9216
:1006B0009F92AF92BF92CF92DF92EF92FF920F93F1
:1006C0001F93CF93DF93CDB7DEB7A9970FB6F894FA
:1006D000DEBF0FBECDBF4C014EA35FA368A779A7B5
:1006E000009709F4EDC1DC01ED91FC911197C080F8
:1006F000D180DDA2CCA2E480F580FA8AE98A1A963C
:10070000FC901A97FB8A1B964C911B974C8B1C965E
:100710005C911C975D8B1D968C911D978E8B1E9600
:100720009C911E979F8B1F96AC91A88FD4015096D9
:10073000BC91B98FD4015196BC91BA8FD4019E96C9
:10074000CD90DD90ED90FC90D197CF82D886E98650
:10075000FA86B1E0BBA38085F4014289538964899C
:1007600075898B3061F01BA26A017B01F694E794D6
:10077000D794C794CB8EDC8EED8EFE8E0DC0DB0140
:10078000CA0142E0B695A795979587954A95D1F706
:100790008B8F9C8FAD8FBE8FD4019E961D921D9224
:1007A0001D921C92D197CB8CDC8CED8CFE8CCF8E65
:1007B000D8A2E9A2FAA20B871C872D873E87412C7D
:1007C000512C32010CC12F81388549855A85223040
:1007D00031054105510550F08B8D9C8DAD8DBE8D41
:1007E000281739074A075B0758F412C082E0C82E61
:1007F000D12CE12CF12CCF82D886E986FA8608C06C
:1008000022E030E040E050E02F83388749875A8764
:100810008F819885A985BA858C019D019BA1E12FC7
:10082000992359F1922F832F202F3E2F492F582F94
:1008300060E070E080E090E002E00E941527AB8865
:10084000BC88CD88DE88EF88F88C098D1A8D0E94CF
:100850003327D22EC32EB42EA52E6F87788B382E39
:10086000292E04E0E02EF12C8E010F5F1F4FECA12A
:10087000FDA10995811128C123C1922F832F202F1B
:100880003E2F492F582F60E070E080E090E001E0BB
:100890000E941527AB88BC88CD88DE88EF88F88C4D
:1008A000098D1A8D0E943327D22EC32EB42EA52E69
:1008B0006F87788B382E292E12E0E12EF12C8E01D5
:1008C0000B5F1F4FECA1FDA10995811107C1F8C075
:1008D0002B853C854D855E85232B242B252B51F4C0
:1008E0008F819885A985BA85F40186A797A7A0ABC3
:1008F000B1AB87C0411451046104710449F42FEF76
:100900003FEF4FEF5FE029833A834B835C8304C062
:1009100049825A826B827C82B4E0EB2EF12C8E01EC
:100920000F5F1F4F2D2D3C2D4B2D5A2D6F85788934
:10093000832D922DE989FA890995882309F4BBC092
:100940002B853C854D855E85215031094109510932
:100950002B873C874D875E874F80588469847A84D3
:1009600027C08B859C85AD85BE85892B8A2B8B2BDB
:1009700061F4CF80D884E984FA84D4019E96CD9224
:10098000DD92ED92FC92D1973CC041145104610478
:10099000710429F4EFEFFFEFFE83ED8302C05E8266
:1009A0004D82A2E0EA2EF12C8E010B5F1F4FBACFD1
:1009B0002F8D38A149A15AA121503109410951096E
:1009C0002F8F38A349A35AA38F819885A985BA850B
:1009D0000196A11DB11D8F839887A987BA87CF8CF7
:1009E000D8A0E9A0FAA0CD28CE28CF2809F0EBCED8
:1009F0002B853C854D855E85232B242B252B09F0EB
:100A00005AC0942D852D2EA13FA148A559A522306D
:100A100031054105510508F467C089019A01ABA170
:100A2000AA2319F149825A826B827C82E12F922F8C
:100A3000832F202F3E2F492F582F60E070E080E059
:100A400090E002E00E941527AB88BC88CD88DE8844
:100A5000EF88F88C098D1A8D0E943327F4E0EF2E71
:100A6000F12C8E010F5F1F4F21C0FC01FD83EE832F
:100A7000E12F922F832F202F3E2F492F582F60E0F8
:100A800070E080E090E001E00E941527AB88BC8810
:100A9000CD88DE88EF88F88C098D1A8D0E94332767
:100AA000E2E0EE2EF12C8E010B5F1F4FE989FA89EF
:100AB0000995811119C0B301A201C4010E941B0252
:100AC000412C512C320110C049815A816B817C81AB
:100AD000452B462B472B09F06BCFFACE8D819E819B
:100AE000892B09F065CF3DCFB201C301A9960FB69E
:100AF000F894DEBF0FBECDBFDF91CF911F910F9154
:100B0000FF90EF90DF90CF90BF90AF909F908F902D
:100B10007F906F905F904F903F902F90089580E16D
:100B200090E008958F929F92AF92BF92CF92DF9202
:100B3000EF92FF920F931F93CF93DF93CDB7DEB762
:100B400028970FB6F894DEBF0FBECDBF4C010097BB
:100B5000B1F1423051056105710588F142505109EA
:100B6000610971096A017B0100E010E09801498385
:100B7000DA82EB82FC820D831E832F833887FC018F
:100B8000008D118D5801C12CD12CE12CF12C00E0ED
:100B900010E029813A814B815C8160E070E080E067
:100BA00090E00E94BE26F401A28CB38CC48CD58C3C
:100BB000E68CF78C00A111A10E94332708C020E029
:100BC00030E040E050E060E070E080E090E02896A7
:100BD0000FB6F894DEBF0FBECDBFDF91CF911F914E
:100BE0000F91FF90EF90DF90CF90BF90AF909F90CC
:100BF0008F900895FC01819191E080FB879587F9A2
:100C00002191820F9F5F9B30C1F70895EF92FF9271
:100C1000CF93DF93F701A481B58120E030E015C0C8
:100C2000EC01C20FD31F48815981452B61F44081EB
:100C30005181628173814F5F5F4F6F4F7F4F408360
:100C40005183628373832E5F3F4F2A173B0740F324
:100C500081E0DF91CF91FF90EF900895EF92FF92A6
:100C6000CF93DF93F701A481B58120E030E019C074
:100C7000EC01C20FD31F488159816A817B81452BCA
:100C8000462B472B61F440815181628173814F5F14
:100C90005F4F6F4F7F4F40835183628373832C5F1D
:100CA0003F4F2A173B0720F381E0DF91CF91FF9060
:100CB000EF900895AF92BF92CF92DF92EF92FF92A2
:100CC0000F931F93CF93DF93CDB7DEB763970FB624
:100CD000F894DEBF0FBECDBF5C01D701CD90DC9094
:100CE000119712968D919C911397809613969C93D1
:100CF0008E931297F5018081853E11F0811104C019
:100D0000D70114961C9258C0F50183858F3009F0E5
:100D100059C0D70114968C91882319F095858917AD
:100D200011F181E3F60111928A95E9F7D5011D963B
:100D30008C91F7018483D60199960C9399979A9692
:100D40001C939A979B962C939B979C963C939C976D
:100D50009D964C939D979E965C939E979F966C93C1
:100D60009F97D0967C93F50120812F7330E021501E
:100D700031094DE0429FC001439F900D1124E0E0F6
:100D8000F1E0DE01119601900D924A95E1F7FE0126
:100D900031969E01225F3F4F11C041918601080F9D
:100DA000191FB501640F711DDB014C91D8014C93E3
:100DB0000196E217F30711F481E0ADC08F31910580
:100DC00060F3FACFF60180818823A9F0C5012E8750
:100DD0003F87488B598B6A8B7B8B0E94FA05D70122
:100DE00014969C912E853F85488959896A897B890B
:100DF000981709F468C081E3F60111928A95E9F722
:100E0000D60199960C9399979A961C939A979B96CC
:100E10002C939B979C963C939C979D964C939D9767
:100E20009E965C939E979F966C939F97D0967C938B
:100E3000D501A60180E09C919032A1F0FA01908347
:100E4000F501248523FF08C02C91213428F02B358F
:100E500018F4905EFA0190838F5F11964F5F5F4F99
:100E6000883049F7D6019C91953011F495EE9C930A
:100E7000F5019085903219F1F601E80FF11D9EE21F
:100E80009083F5013896382F3C5F8F5F90819032C8
:100E9000B1F0A601480F511DDA019C93D5011C96B3
:100EA0002C9124FF08C02081213428F02B3518F420
:100EB000905EDA019C938F5F31968313E7CFF60142
:100EC000E80FF11D1082F5018385D60190968C9371
:100ED0004489558960E070E0BA0155274427028DA6
:100EE000138D20E030E0402B512B622B732BF60149
:100EF00041A352A363A374A3F501848D958DA68DA0
:100F0000B78DF60185A396A3A7A3B0A781E0D7016B
:100F100015968C9380E063960FB6F894DEBF0FBEF3
:100F2000CDBFDF91CF911F910F91FF90EF90DF9098
:100F3000CF90BF90AF9008952F923F924F925F92C3
:100F40006F927F928F929F92AF92BF92CF92DF92D9
:100F5000EF92FF920F931F93CF93DF93CDB7DEB73E
:100F6000A7970FB6F894DEBF0FBECDBF3B01009729
:100F700011F480E040C161157105D9F3DC01ED91F8
:100F8000FC91848195819FA38EA3DB0199964C905F
:100F900099979A963C909A979B962C909B979C96A3
:100FA000BC91B9A3FB01F5A5FAA3DB019E96BC9108
:100FB000BBA3FB01F7A5FCA3DB01D096BC91BDA3AD
:100FC0006B01DB010D900020E9F71197A61BB70B11
:100FD0001A2FBB27CD010C966DE070E00E94882689
:100FE000562E4BE050E060E270E0CE0101960E9488
:100FF00092276EE270E0C3010E94CA270097F1F0C9
:10100000FC0121812223D1F09C012F5F3F4FD901A8
:101010000D900020E9F71197A21BB30B8A2F809542
:10102000180F7E01F9E0EF0EF11C4A2FA43008F0F2
:1010300043E050E0B901C7010E9489271930A8F4A4
:10104000412F50E0B601CE0101960E948927D301BD
:101050008C918E3231F511968C9111978E3211F45C
:1010600012968C918823E1F01CC088E0F601DE0125
:10107000119601900D928A95E1F7F30181A1982FC5
:1010800092959F70803A10F4905D01C09F599F83A4
:101090008F708A3010F4805D01C08F59888701C03D
:1010A000512C8981853E11F485E08983FE013C96AF
:1010B00085E1DF011D928A95E9F7F30180A18C8714
:1010C00081A092A0A3A0B4A0BE8AAD8A9C8E8B8E74
:1010D00085A096A0A7A0B0A48D8E9E8EAF8EB8A23C
:1010E000F0E25F9E40011124940140E050E060E096
:1010F00070E080E090E0A42CB32CC22CD9A0EAA030
:10110000FBA00CA11DA10E943327E0E2EE2EF12CE2
:10111000CC24C394D12CCC0EDD1E8601EEA1FFA100
:101120000995882309F425CFC6010E94FA05A82E47
:10113000B52C1DE0912E0FE0802E5AC040E250E009
:101140006FEF70E0C6010E9492278B2D90E001970F
:10115000989ED001999EB00D1124A60DB71D81E077
:10116000F601E80FF11D9C919083982F9F5FF60187
:10117000E90FF11D10828E5F8B3019F08A3121F456
:1011800002C08EE001C08CE19D91992311F08F3156
:1011900038F3B51411F0B98203C08B2D80648983B4
:1011A0008C86AE861D861B8E1C8EB0E2EB2EF12C3B
:1011B0008601242D332D422D59A16AA17BA18CA13A
:1011C0009DA1EEA1FFA10995242D332D422D59A1FA
:1011D0006AA17BA18CA19DA1A0E20E943C27422E86
:1011E000332E242E59A36AA37BA38CA39DA3BA9468
:1011F000B110A4CF81E0A7960FB6F894DEBF0FBE62
:10120000CDBFDF91CF911F910F91FF90EF90DF90B5
:10121000CF90BF90AF909F908F907F906F905F9096
:101220004F903F902F900895AF92BF92CF92DF9250
:10123000EF92FF920F931F93CF93DF93CDB7DEB75B
:1012400060970FB6F894DEBF0FBECDBF7C010E9441
:1012500092058E010F5F1F4FE0E1D8011D92EA95C4
:10126000E9F7D701ED91FC9111975896ED90FC901C
:1012700059970680F781E02DA12CB12CAFE8CA2E3A
:10128000A5E0DA2E099560960FB6F894DEBF0FBE82
:10129000CDBFDF91CF911F910F91FF90EF90DF9025
:1012A000CF90BF90AF9008952F923F924F925F9250
:1012B0006F927F928F929F92AF92BF92CF92DF9266
:1012C000EF92FF920F931F93CF93DF93CDB7DEB7CB
:1012D000A7970FB6F894DEBF0FBECDBF4C019B01A0
:1012E000009709F484C14115510509F480C1DA0160
:1012F0000D900020E9F7CD01841B950B0B966DE056
:1013000070E00E9474266F5F6FA3D9014D915D91CB
:101310006D917C914A8F5B8F6C8F7D8FD401ED91A5
:10132000FC9111978085452B462B472BB9F58B30C7
:1013300059F49A960D911D912D913C919D970A8F8C
:101340001B8F2C8F3D8F2AC0F40122A033A044A014
:1013500055A066A077A0F0A5FA83D4019996BC9118
:10136000BA87F401F28DFF8FD4015B96BC91B8A3CC
:10137000F401F48DF9A3D4015D96BC91BAA3F401F4
:10138000F68DFBA3D4015F96BC91BCA3F401F0A140
:10139000FDA3D4019196BC91BEA310C01F8E18A2CC
:1013A00019A21AA21BA21CA21DA21EA2212C312C22
:1013B000412C512C612C712C1A821A862B863B8A67
:1013C0004C8A5D8A6E8A7F8AEA81E88FFA85F98F76
:1013D0001E8E9101A201B3018A819A85AF8CB8A0BB
:1013E000C9A0DAA0EBA0FCA00DA11EA10E9451276C
:1013F00009F0BAC00A8D1B8D2C8D3D8D012B022B5F
:10140000032B09F4F4C09101A0E00E945A2709F4CB
:101410006CC04A8D5B8D6C8D7D8DC4010E9459011D
:10142000611571058105910509F05BC001E010E0CF
:1014300020E030E04A8D5B8D6C8D7D8DC4010E9473
:1014400051032B013C01611571058105910509F4DA
:10145000CEC0DC01CB010297A109B1098C019D012D
:1014600040E050E0BA018A831B832C833D834E8386
:101470005F8368877987D40158960D911C9159979D
:101480005801C12CD12CE12CF12C00E010E02A8174
:101490003B814C815D8160E070E080E090E00E94E3
:1014A000BE26F401A28CB38CC48CD58CE68CF78C50
:1014B00000A111A10E9433272B873B8B4C8B5D8BA6
:1014C0006E8B7F8B888F998FF2E04F1651046104E9
:1014D000710408F494C0B301A201C4010E9414096C
:1014E0008EC06A8F7B8F8C8F9D8F4A8D5B8D6C8DAC
:1014F0007D8DC4010E94920519012A013B018A8356
:101500009A87D40158968D919C9159978C0120E02F
:1015100030E040E050E0BA011C872D873E874F87BE
:10152000588B698B7A8B9101A201B3018A819A85CC
:101530005801C12CD12CE12CF12C00E010E00E94CC
:1015400033272F8F38A349A35AA36BA37CA38DA362
:101550009EA32B863B8A4C8A5D8A6E8A7F8A1A817B
:10156000188F2A85298F1E8ED401ED91FC91019050
:10157000F081E02DEE24E394F12C8E010F5F1F4FDC
:101580009101A201B3018A819A850995882379F195
:101590008981853E11F0811114C0BE8DBF5FBE8F61
:1015A000EFA1BE1760F59101A201B3018A819A856E
:1015B000A0E20E943C2719012A013B018A839A87F5
:1015C00008CF9101A201B3018A819A85A0E20E940D
:1015D0003C272B873B8B4C8B5D8B6E8B7F8B888F57
:1015E000998F19012A013B018A839A87F1CE1B86C4
:1015F0001B8A1C8A1D8A1E8A1F8A188E198E2B85AB
:101600003B894C895D896E897F89888D998DA796E4
:101610000FB6F894DEBF0FBECDBFDF91CF911F9103
:101620000F91FF90EF90DF90CF90BF90AF909F9081
:101630008F907F906F905F904F903F902F90089584
:101640002F923F924F925F926F927F928F929F92D2
:10165000AF92BF92CF92DF92EF92FF920F931F93C0
:10166000CF93DF93CDB7DEB7C555D1090FB6F89448
:10167000DEBF0FBECDBF9FA38EA3009709F462C249
:10168000DC0114968D919C911597892B09F45AC20F
:1016900016968D919C911797892B09F04DC252C2D5
:1016A00010921101109210014DC2E981FA81FFAB35
:1016B000EEABAC80BD802D96BFAEAEAE2D97BB809D
:1016C0002E96BFAE2E97CE802596CFAE2597EF8073
:1016D000F8846096FFAEEEAE609789859A850C859A
:1016E0001D8527961FAF0EAF27978E889F88A88CE1
:1016F000B98C2A8D3B8D4C8D5D8D28AF39AF4AAFAB
:101700005BAF4AA15BA16CA17DA166964CAF5DAFBA
:101710006EAF7FAF669781149104A104B10431F4D8
:10172000009709F4BDCF4C01A12CB12C27966EADCA
:101730007FAD27976115710541F0CB01A0E0B0E0C6
:1017400088AF99AFAAAFBBAF09C0C8ACD9ACEAACFF
:10175000FBACCD28CE28CF2809F4A2CF75016401B7
:101760002D960EAD1FAD2D97C01AD10AE108F108D4
:1017700025961FAD2597A12FB0E028AD39AD4AAD14
:101780005BAD0E945926C61AD70AE80AF90A8EA943
:101790009FA9019760962EAD3FAD609705E0220F9F
:1017A000331F0A95E1F7820F931F6EA97FA90E944C
:1017B0007426C61AD70AE108F1082E966FAD2E9747
:1017C000262F30E040E050E0C701B6010E949C2681
:1017D0002B962CAF3DAF4EAF5FAF2B97253F7FE0F1
:1017E00037074105510508F45BCF253F3F4F4105C1
:1017F000510530F486E0AEA1BFA118968C9304C0C9
:101800008BE0EEA1FFA180878CE2E2E1F1E0DF0155
:101810001D928A95E9F7EEA8FFA86701E12CF12C4B
:1018200000E010E09801CEA6DFA6E8AAF9AA0AAB6C
:101830001BAB2CAB3DAB9501840140E050E0BA01FD
:101840008CAE1DAF2EAF3FAF21964FAF21972296A2
:101850005FAF229723966FAF239724967FAF24978D
:101860005601C12CD12CE12CF12C00E010E02CAD64
:101870003DAD4EAD5FAD60E070E080E090E00E9475
:10188000BE2620931201309313014093140150930C
:1018900015016093160170931701809318019093BE
:1018A00019012D962EAD3FAD2D9740E050E060E040
:1018B00070E080E090E00E94BE2651016201730159
:1018C00061960FAD619762961FAD62970E943327B4
:1018D00019012A013B014C0120931A0130921B018E
:1018E00040931C0150921D0160931E0170921F01D4
:1018F00080932001909221012B966CAD7DAD8EAD31
:101900009FAD2B976E5F7F4F8F4F9F4FAEA1BFA1B3
:101910001896EC91E63029F024E030E040E050E009
:1019200004C022E030E040E050E00E946426609372
:101930002201709323018093240190932501AEA886
:10194000BFA8B0922701A09226012E96CFAC2E9769
:10195000CA9CC001CB9C900D1124909329018093C7
:101960002801AEA4BFA4C12CD12CE12CF12C00E0A5
:1019700010E025962FAD259730E040E050E060E084
:1019800070E080E090E0E63009F063C00E94BE267F
:101990002796CEACDFAC27975601C12CD12CE12C79
:1019A000F12C8701AEA2BFA2C8A6D9A6EAA6FBA6C3
:1019B0000CA71DA7C12CD12CE12CF12C00E010E0CC
:1019C0000E94BE2651016201730184010E943327E7
:1019D00029013A01B62FA72FF82FE92F20933201C2
:1019E0005092330140933401709235016093360177
:1019F00070933701809338019093390160960EAD52
:101A00001FAD6097980140E050E060E070E080E03A
:101A100090E005E00E94152759016A017B018C01C5
:101A20009201A3016B2F7A2F8F2F9E2F0E943327B5
:101A300020932A0130932B0140932C0150932D01C8
:101A400060932E0170932F018093300190933101A8
:101A50003DC00E94BE26C8ACD9ACEAACFBAC560176
:101A60006701E12CF12C8701AEA2BFA2C8A6D9A6BE
:101A7000EAA6FBA60CA71DA7E12CF12C00E010E0C4
:101A80000E94BE2651016201730184010E94332726
:101A900020932A0130932B0140932C0150932D0168
:101AA00060932E0170932F01809330019093310148
:101AB0006696ECACFDAC0EAD1FAD6697E0923A01B8
:101AC000F0923B0100933C0110933D0120E131E095
:101AD0003BC0E0E1F1E082E3DF011D928A95E9F786
:101AE000EEA1FFA1F0931101E09310018184928493
:101AF000A384B4849401A50160E070E080E090E0EC
:101B000009E00E94152719012A013B0161968FAF58
:101B1000619762969FAF6297ABE00E943C2701906D
:101B2000F081E02D15E2E12EF12C8E010F5F1F4FA9
:101B300009958111BACDB4CD809110019091110118
:101B4000892B39F220E030E0C901CB5ADF4F0FB6C4
:101B5000F894DEBF0FBECDBFDF91CF911F910F91E3
:101B6000FF90EF90DF90CF90BF90AF909F908F90BD
:101B70007F906F905F904F903F902F9008950097C7
:101B800019F0FC011182108208950097D1F16115BE
:101B90007105B9F1FB0120A124FF2DC032C021E362
:101BA000FB01A4E4B1E001900D922A95E1F7909336
:101BB00043018093420110927501109276011092B8
:101BC0007701109278011092790110927A011092A7
:101BD0007B0110927C01FB0181A192A1A3A1B4A180
:101BE00080937D0190937E01A0937F01B09380014B
:101BF00022E431E008C02091420130914301232BBF
:101C000071F220E030E0C9010895009719F0FC015D
:101C10001182108208952F923F924F925F926F929D
:101C20007F928F929F92AF92BF92CF92DF92EF926C
:101C3000FF920F931F93CF93DF93CDB7DEB76697D5
:101C40000FB6F894DEBF0FBECDBF9E8B8D8B7A8B07
:101C5000698B5E874D87892B09F48FC0A988BA8864
:101C6000AB2809F48AC0CD84DE84CD2809F485C070
:101C7000AD89BE89D3962C90D397D4963C90D497B7
:101C8000D5964C90D597D6965C90D697D7966C9073
:101C9000D797D8967C90D897D9968C90D997DA9682
:101CA0009C90DA979796AD90BD90CD90DC909A97E6
:101CB000A986BA86CB86DC86ED85FE859F0140E04D
:101CC00050E060E070E080E090E05101620173015B
:101CD00084010E943327C984DA84EB84FC84560192
:101CE0006701E12CF12C8701A982BA82CB82DC82C8
:101CF000ED82FE820F831887E12CF12C00E010E0CA
:101D00000E94512761F058F0E984FA84E218F30840
:101D1000FE86ED86EF2819F420E030E01FC1AD8982
:101D2000BE89ED91FC911197A08CB18CB88AAF86D9
:101D3000DB96CD90DD90ED90FC90DE97C982DA8243
:101D4000EB82FC82CD28CE28CF2809F050C0939694
:101D5000AD90BD90CD90DC909697A982BA82CB824F
:101D6000DC829101A201B301C401A0E0AB28AC2840
:101D7000AD2831F40E945A2779F22FEF3FEFEEC0E1
:101D80000E945A27A1F129863A864B865C86EF8508
:101D9000F8898F0120E030E0C12CD12C76011AC0E7
:101DA00049815A816B817C81AD89BE898D919C91DD
:101DB0002B8B3C8B0E94590169837A838B839C8394
:101DC0002B893C89C01AD10AE20AF30A672B682BD7
:101DD000692B99F289859A85AB85BC858C0D9D1DF3
:101DE000AE1DBF1D80179107A207B307C8F6EF8588
:101DF000F8893197E221F321FA87E9876D847E849F
:101E0000AD89BE898D909C9049815A816B817C817E
:101E1000C4010E94920559016A017B018C014F8423
:101E20005888E985FA854E1A5F0A6414750408F427
:101E30002301D4018D909C90E985FA859F0140E0B3
:101E400050E060E070E080E090E00E943327D40131
:101E5000ED91FC91720109891A890995811101C0DE
:101E600064C0E989FA89E40DF51DFA8BE98B6418E1
:101E70007508920140E050E060E070E080E090E0A2
:101E8000AD89BE89D396AC90D397D496BC90D497A5
:101E9000D596CC90D597D696DC90D697D796EC90E1
:101EA000D797D896FC90D897D9960C91D997DA966F
:101EB0001C91DA970E943327D3962C93D397D4960C
:101EC0003C93D497D5964C93D597D6965C93D6975A
:101ED000D7966C93D797D8967C93D897D9968C93AE
:101EE000D997DA969C93DA97E985FA854E0E5F1EAC
:101EF000AF84B8884A145B04F8F049815A816B8139
:101F00007C818D919C910E94590169837A838B8396
:101F10009C83672B682B692B69F4AD89BE89DB969E
:101F20001D921D921D921C92DE972D853E852619CD
:101F3000370914C01A861986A980BA80CB80DC8044
:101F4000AD89BE89DB96AD92BD92CD92DC92DE97D3
:101F50006114710409F054CF2D853E85C901669640
:101F60000FB6F894DEBF0FBECDBFDF91CF911F91AA
:101F70000F91FF90EF90DF90CF90BF90AF909F9028
:101F80008F907F906F905F904F903F902F9008952B
:101F90002F923F924F925F926F927F928F929F9279
:101FA000AF92BF92CF92DF92EF92FF920F931F9367
:101FB000CF93DF93CDB7DEB76E970FB6F894DEBF41
:101FC0000FBECDBF9C8F8B8F7C8B6B8B5E8B4D8BB5
:101FD000892B19F42FEF3FEFFCC1EB88FC88EF2829
:101FE000C9F30D891E89012BA9F3AB8DBC8DD39646
:101FF000BC91B983EB8DFC8DF4A9FA83AB8DBC8DBC
:10200000D596BC91BB83EB8DFC8DF6A9FC83AB8D83
:10201000BC8DD796BC91BD83EB8DFC8DF0ADFE835E
:10202000AB8DBC8DD996BC91BF83EB8DFC8DF2AD91
:10203000F887EB8DFC8D87A190A5A1A5B2A51C0109
:102040002D0129813A814B815C816D817E818F8157
:10205000988551016201E12CF12C00E010E00E9412
:10206000512711F008F0B6CF0190F081E02DE08CFF
:10207000F18CFA8AE98AAB8DBC8DDB962D903D9070
:102080004D905C90DE9787010150110929813A81BA
:10209000022313231A8709872114310441045104B0
:1020A00009F079C093962D903D904D905C90969755
:1020B000211431044104510419F529813A81A0E029
:1020C0000E945A2709F086CF01E010E020E030E0BE
:1020D00040E050E0BA01CF010E9451031B012C01E6
:1020E000AB8DBC8D93966D937D938D939C939697BA
:1020F000611571058105910519F420E030E069C191
:10210000EB8DFC8D13A9B4A905A9F6A867A970AD3C
:10211000212F3B2F402F5F2D81AD92ADA0E00E947B
:102120005A27C9F1C12EDB2EE02E09891A894801F0
:10213000A12CB12C2BC0C818D908EA08FB08B201A1
:10214000A101AB8DBC8D8D919C910E9459016115AF
:10215000710581059105C1F4C114D104E104F104B4
:1021600009F038CF01E010E020E030E0B201A10139
:10217000EB8DFC8D808191810E9451036115710569
:102180008105910509F4B9CF1B012C01C814D904AC
:10219000EA04FB0480F6ED88FE88FA82E982AB8DC2
:1021A000BC8DED90FC90B201A101C7010E94920587
:1021B0002F8B388F498F5A8FB62FA72F8C016988A4
:1021C0007A88E985FA856E1A7F0A29813A8126156F
:1021D000370508F43901F7010190F081E02DFE8FF9
:1021E000ED8F29853A8540E050E060E070E080E0C6
:1021F00090E0AF88B88CC98CDA8CEB2EFA2E0E9456
:1022000033270480F581E02D73010B891C89099522
:10221000882309F48AC04B895C89460D571D5C8B65
:102220004B8B89819A81861997099A8389839301B7
:1022300040E050E060E070E080E090E0AB8DBC8D6D
:10224000D396AC90D397D496BC90D497D596CC9097
:10225000D597D696DC90D697D796EC90D797D89608
:10226000FC90D897D9960C91D997DA961C91DA9769
:102270000E943327D3962C93D397D4963C93D4972C
:10228000D5964C93D597D6965C93D697D7966C9364
:10229000D797D8967C93D897D9968C93D997DA9676
:1022A0009C93DA97E985FA856E0E7F1EE988FA8895
:1022B0006E147F0468F1B201A1018D919C910E947E
:1022C00059016115710581059105F1F409811A81A2
:1022D000012B49F4AB8DBC8DDB961D921D921D9296
:1022E0001C92DE9722C001E010E020E030E0B20155
:1022F000A101EB8DFC8D808191810E9451036115BC
:1023000071058105910531F31B012C011A8619868F
:10231000AB8DBC8DDB962D923D924D925C92DE97FB
:10232000E981FA81EF2B09F03ACFEB8DFC8DB3A94F
:10233000A4A945A856A867A970AD67A070A481A4F8
:1023400092A48401730120E030E0A9016986FA8635
:102350000B871C872D873E874F87588B2B2F3A2F53
:10236000A20181AD92AD53016801E12CF12C00E096
:1023700010E00E94512739F130F19D0137A320A7C9
:1023800041A652A6BF016E5F7F4F808191810E945E
:102390009C07811118C0AB8DBC8DD3960D90BC915C
:1023A000A02DA619B709BA83A983E984EB8DFC8D0A
:1023B000E3AAFA84F4AA0B8505AB1C8516AB17AA11
:1023C00010AE11AE12AE2D893E8949815A81241B6F
:1023D000350BC9016E960FB6F894DEBF0FBECDBFA8
:1023E000DF91CF911F910F91FF90EF90DF90CF90F1
:1023F000BF90AF909F908F907F906F905F904F9025
:102400003F902F9008952F923F924F925F926F923C
:102410007F928F929F92AF92BF92CF92DF92EF9274
:10242000FF920F931F93CF93DF93CDB7DEB72C9717
:102430000FB6F894DEBF0FBECDBF98878F83498754
:102440005A876B877C87892B11F480E082C1AF812A
:10245000B88593968D909D90AD90BC909697ED9198
:10246000FC91408C518C81149104A104B10439F089
:10247000C984DA84EB84FC84612C712C1CC08985AE
:102480009A85AB85BC85892B8A2B8B2B89F71AC142
:10249000B501A401AF81B8858D919C910E9459012D
:1024A000611571058105910581F0C418D508E6080C
:1024B000F7084B015C014C145D046E047F0440F38B
:1024C00081149104A104B10469F5C301B2016C0D3A
:1024D0007D1D8E1D9F1D6150710981099109A30108
:1024E00092010E949C2689019A01B501A401EF8105
:1024F000F885808191810E945103611571058105E4
:10250000910509F4A2CF81149104A104B10451F4FE
:10251000AF81B88593966D937D938D939C93969799
:102520004B015C0189859A85AB85BC85EF81F88577
:1025300087A390A7A1A7B2A7892B8A2B8B2B21F465
:1025400013A214A215A216A26F8178856E5F7F4F29
:10255000EF81F885808191810E949C07882309F48E
:1025600074CF89859A85AB85BC85892B8A2B8B2B6B
:1025700039F4B501A401AF81B8858D919C91A0C0BB
:102580004C145D046E047F0408F49CC0EF81F88550
:10259000208031802114310409F494C0F2E08F16B8
:1025A0009104A104B10408F48DC0B501A401C101D6
:1025B0000E9459012B013C01D101ED91FC918085D4
:1025C000950184018B30E1F5CC24CA94DC2CEC2CF1
:1025D000BFE0FB2EC982DA82EB82FC82A12F922F10
:1025E000832F282D3A2F492F582F60E070E080E08C
:1025F00090E002E00E941527D1011A96AC901A973C
:102600001B96BC901B971C96CC901C971D96DC903B
:102610001D971E96EC901E971F96FC901F97509644
:102620000C91509751961C910E9433270480F5819C
:10263000E02D14E0E12EF12C8E010F5F1F4F35C00D
:102640008FEF9FEF9E838D83A12F922F832F282DB5
:102650003A2F492F582F60E070E080E090E001E0D1
:102660000E941527D1011A96AC901A971B96BC9020
:102670001B971C96CC901C971D96DC901D971E9660
:10268000EC901E971F96FC901F9750960C915097B8
:1026900051961C910E9433270480F581E02DA2E021
:1026A000EA2EF12C8E010B5F1F4F0995882351F004
:1026B000411451046104710429F0B301A201C10164
:1026C0000E941B0289859A85AB85BC851C012D0162
:1026D000AF81B885D396AC90D397D496BC90D4975D
:1026E000D596CC90D597D696DC90D697D796EC9089
:1026F000D797D896FC90D897D9960C91D997DA9617
:102700001C91DA979101A20160E070E080E090E016
:102710000E945127E8F4D3962C92D397D4963C92FA
:10272000D497D5964C92D597D6965C92D697D79655
:102730001C92D797D8961C92D897D9961C92D99765
:10274000DA961C92DA97FD0113AE14AE15AE16AEF2
:1027500081E02C960FB6F894DEBF0FBECDBFDF919F
:10276000CF911F910F91FF90EF90DF90CF90BF908E
:10277000AF909F908F907F906F905F904F903F9021
:102780002F900895AF92BF92CF92DF92EF92FF9277
:102790000F931F93CF93DF93EC015B01009709F434
:1027A00055C06115710509F451C03BA92CA99DA91B
:1027B0008EA9413059F020F0423009F047C014C0D2
:1027C000FB01C080D180E280F3801BC0432F522FD9
:1027D000692F782FF501C080D180E280F380C40E8C
:1027E000D51EE61EF71E0DC0FB01C080D180E28021
:1027F000F3808FA198A5A9A5BAA5C80ED91EEA1E77
:10280000FB1E4FA158A569A57AA54C155D056E055F
:102810007F05A8F097018601CBAA1CAB2DAB3EAB80
:102820001FAA18AE19AE1AAE1BAE1CAE1DAE1EAE60
:10283000F501C082D182E282F38281E008C0B70153
:10284000A601CE010E9403128111E4CF80E0DF9146
:10285000CF911F910F91FF90EF90DF90CF90BF909D
:10286000AF900895CF93DF93009799F061157105AC
:1028700081F0FB0120A124FF0CC020918101309147
:102880008201232B49F02091BA013091BB01232B07
:1028900031F0C0E0D0E01AC0C1E8D1E002C0CAEB1C
:1028A000D1E0DE01129621E3FB0101900D922A9501
:1028B000E1F799838883FB0141A152A163A174A12F
:1028C0004BAB5CAB6DAB7EAB18AE1FAACE01DF91FC
:1028D000CF910895009719F0FC011182108208959C
:1028E000FC01009761F043A154A165A176A143AB1F
:1028F00054AB65AB76AB10AE17AA81E0089580E0CB
:1029000008952F923F924F925F926F927F928F9293
:102910009F92AF92BF92CF92DF92EF92FF920F936E
:102920001F93CF93DF93CDB7DEB7E6970FB6F8943A
:10293000DEBF0FBECDBF98A78FA3892B09F41FC0A0
:1029400061157105E1F0AFA1B8A56D907C9011976C
:10295000F301008CF18DE02DFCA7EBA7D3962D9011
:102960003D904D905C90D697D7968D919C91D8973D
:102970008E179F0730F08FA198A50E94701480E0F9
:10298000CAC0FE01B19626E0DF011D922A95E9F743
:1029900021E3FB0111922A95E9F77AA369A3211497
:1029A00031044104510409F0A1C0D301ED91FC911F
:1029B000119720852B3039F49A962D903D904D90AB
:1029C0005C909D9793C0F301028CF38DE02DD301B1
:1029D00092962D913C919397E21BF30BFCA7EBA7EA
:1029E00085C0EBA5FCA529A53AA5E21BF30BFEAB20
:1029F000EDABA90160E070E080E090E0DC012DA784
:102A00005EA76FA778AB89AB9AABABABBCAB21141D
:102A1000310441045104F9F440E050E060E070E01A
:102A200080E090E0D3019296AC9092979396BC9000
:102A300093979496CC9094979596DC9095979696CC
:102A4000EC9096979796FC90979798960C919897FC
:102A500099961C910DC0B201A101C3010E9492057B
:102A6000ADA4BEA4C12CD12CE12CF12C00E010E0CF
:102A70000E9433271CA21BA2D301ED91FC9102807E
:102A8000F381E02D01E2802E912C8C0E9D1EAAE593
:102A9000AA2EA6E0BA2ECDA8DEA8B0E2EB2EF12C2D
:102AA0008E010F5F1F4F0995882309F468CF8BA112
:102AB0009CA1E9A5FAA5E80FF91FFAA7E9A72BA59C
:102AC0003CA5E217F307A0F0B201A101C3010E94E7
:102AD00059011B012C0180E090E0211431044104D4
:102AE000510421F48EA1811107C045CF9AA789A76F
:102AF0008EA1882309F475CFAFA1B8A5D3962D92E6
:102B00003D924D925C92D697E9A5FAA5D896FC9392
:102B1000EE93D7978EA1E6960FB6F894DEBF0FBE60
:102B2000CDBFDF91CF911F910F91FF90EF90DF907C
:102B3000CF90BF90AF909F908F907F906F905F905D
:102B40004F903F902F9008958F929F92AF92BF9297
:102B5000CF92DF92EF92FF920F931F93CF93DF9369
:102B60005C01EB018A01009709F46CC0209709F41D
:102B700069C08881882309F465C04115510509F4AD
:102B800061C08F3209F4219681E3F80111928A9590
:102B9000E9F780E1F80180A38881811102C081E01A
:102BA00052C0B801C5010E9432147C01009709F49B
:102BB00049C06FE270E0CE010E949927009739F07A
:102BC000C82ECC1A4C012FEF821A920A2CC0AC2FBF
:102BD000BD2FFD0101900020E9F73197EA1BFB0BA7
:102BE000CE2E4E018E0E911C1EC0F80101900020C9
:102BF000E9F73197E01BF10BEC15FD05A9F4A601EF
:102C0000B801CE010E94AD27009771F4C7010E9460
:102C10006A14CC0DDD1D8881882309F2F80180A19A
:102C200084FD09C00FC0D12CB801C7010E948114D6
:102C30008111DBCF03C0E401E12CF12CC7010E941C
:102C40006A14AACF80E0DF91CF911F910F91FF907E
:102C5000EF90DF90CF90BF90AF909F908F900895AE
:102C6000CF92DF92EF92FF920F931F93CF93DF9358
:102C70008C017B01EA01009709F443C061157105DD
:102C800009F43FC0FB0180818823D9F12097C9F165
:102C9000BE01C8010E948114882359F0BE01C701FA
:102CA0000E94A4270097A1F7C8010E94701492E027
:102CB00029C0F801C080D18081E3FE0111928A957C
:102CC000E9F74FE150E0B701CE010E94BB27B80100
:102CD0006D5D7F4FAE01C6010E94540929A73AA736
:102CE0004BA75CA76DA77EA78FA798ABA0E00E941B
:102CF0005A2739F0BE01C6010E949C0791E081115C
:102D000001C090E0892FDF91CF911F910F91FF902B
:102D1000EF90DF90CF9008952F923F924F925F9265
:102D20006F927F928F929F92AF92BF92CF92DF92DB
:102D3000EF92FF920F931F93CF93DF93CDB7DEB740
:102D40002C970FB6F894DEBF0FBECDBF5C016B01B0
:102D5000009711F480E06FC061157105D9F3DB01B4
:102D600099962C9099979A963C909A979B964C900E
:102D70009B979C965C909C979D966C909D979E9639
:102D80007C909E979F968C909F97D0969C90910157
:102D9000A201B301C401A0E00E945A27D9F2D501D3
:102DA000ED91FC910190F081E02D1CE0E12EF12CE1
:102DB0008E010F5F1F4F9101A201B301C40109955C
:102DC000882341F2B5EEB983D501ED91FC910480E1
:102DD000F581E02D8E010F5F1F4F9101A201B3011C
:102DE000C4010995882309F4B5CF8C858F3061F42F
:102DF0009101A201B301C401A0E20E943C27190184
:102E00002A013B014C01CBCFF60141A152A163A1A4
:102E100074A1411551056105710551F0C5010E946C
:102E20001B0221E030E0811105C020E030E002C04B
:102E300021E030E0822F2C960FB6F894DEBF0FBE53
:102E4000CDBFDF91CF911F910F91FF90EF90DF9059
:102E5000CF90BF90AF909F908F907F906F905F903A
:102E60004F903F902F900895EF92FF920F931F93F2
:102E7000CF93DF93CDB7DEB7E1970FB6F894DEBFFF
:102E80000FBECDBF7C018B01CA01E114F10409F42E
:102E90003FC061157105E1F10097D1F121153105B0
:102EA00021F0F9014081442399F1FC0140815181D5
:102EB000E416F50669F52115310509F49801AE010E
:102EC0004F5F5F4FB9010E943016882309F1F80166
:102ED00080A189A341A152A163A174A14AA35BA3CC
:102EE0006CA37DA345A156A167A170A54EA35FA3C6
:102EF00068A779A7BE016F5F7F4FC7010E949C073B
:102F0000811108C0BE016F5F7F4FC7010E948C1600
:102F100080E014C0F80111A212A213A214A2B801F9
:102F2000C7010E948C16882399F381E3FE01319634
:102F3000D80101900D928A95E1F781E0E1960FB6F4
:102F4000F894DEBF0FBECDBFDF91CF911F910F91DF
:102F5000FF90EF9008952F923F924F925F926F9261
:102F60007F928F929F92AF92BF92CF92DF92EF9219
:102F7000FF920F931F93CF93DF93CDB7DEB72C97BC
:102F80000FB6F894DEBF0FBECDBF1C017A836983F4
:102F90005C874B87009709F414C149815A81411518
:102FA000510509F40EC1DA018C91882309F409C195
:102FB000EB85FC85EF2B69F404C16B857C858981E9
:102FC0009A810E94A427009721F4C1010E947014E5
:102FD000F8C06B857C85C1010E9481148111EDCF01
:102FE000D1018D909C9001E010E020E030E040E0C5
:102FF00050E0BA01C4010E9451032B013C0161154C
:1030000071058105910509F4DCC062307105810507
:10301000910528F0AB01BC01C4010E94140981E3B1
:10302000EB85FC8511928A95E9F780E1AB85BC853B
:1030300090968C9393018201025011092109310964
:10304000B901A80180E090E0DC010B835C836D8313
:103050007E838F839887A987BA87D40158960D916C
:103060001C9159975801C12CD12CE12CF12C00E076
:1030700010E02B813C814D815E8160E070E080E05A
:1030800090E00E94BE26F401A28CB38CC48CD58C37
:10309000E68CF78C00A111A10E943327AB85BC857B
:1030A00099962C9399979A963C939A979B964C93C2
:1030B0009B979C965C939C979D966C939D979E96F0
:1030C0007C939E979F968C939F97D0969C93D09736
:1030D0001EE21C93FD0141A252A263A274A2BD0193
:1030E000C4010E949C07811101C066C0AB85BC85EC
:1030F00099962C9199979A963C919A979B964C9178
:103100009B979C965C919C979D966C919D979E96A3
:103110007C919E979F968C919F97D0969C91A0E2D0
:103120000E943C27EB85FC8521A732A743A754A723
:1031300065A776A787A790AB1183D10193960D91D0
:103140001D912D913C91969701A312A323A334A323
:10315000BF01C4010E949C07811101C02DC04FE135
:1031600050E069817A818B859C850E94BB27AB8565
:10317000BC8591964D925D926D927C929497B1012F
:103180006D5D7F4FAD01C4010E945409EB85FC8544
:1031900021A732A743A754A765A776A787A790AB17
:1031A000A0E00E945A2709F407C06B857C85C40102
:1031B0000E949C07811107C0B301A201C4010E94B3
:1031C0001B0280E001C081E02C960FB6F894DEBFB0
:1031D0000FBECDBFDF91CF911F910F91FF90EF9068
:1031E000DF90CF90BF90AF909F908F907F906F9027
:1031F0005F904F903F902F900895AF92BF92CF92E3
:10320000DF92EF92FF920F931F93CF93DF93FC0116
:10321000009759F1A081B18118962C9182899389E8
:10322000A489B589008D118D2B3041F432E0B6951B
:10323000A795979587953A95D1F704C0B695A79528
:10324000979587950297A109B1095801C12CD12CF6
:10325000E12CF12C00E010E09C01AD0160E070E099
:1032600080E090E00E94BE2608C020E030E040E010
:1032700050E060E070E080E090E0DF91CF911F913E
:103280000F91FF90EF90DF90CF90BF90AF90089597
:103290002F923F924F925F926F927F928F929F9266
:1032A000AF92BF92CF92DF92EF92FF920F931F9354
:1032B000CF93DF93CDB7DEB7E8970FB6F894DEBFB4
:1032C0000FBECDBF3C01009749F420E030E040E064
:1032D00050E060E070E080E090E0AAC019A21AA27D
:1032E0001BA21CA280E290E09EA38DA3F301F285B5
:1032F000F9A7F301F385FAA7F301F485FBA7F3011E
:10330000F585FCA7F301F685FDA7F301F785FEA778
:10331000F301F089FFA7F301F189F8ABF3012288EB
:1033200033884488558868C0FEEF2F16FFEF3F06AC
:103330004104510418F438A62FA204C02EEF3FEF29
:1033400038A72FA3F301A081B1811296ED91FC91D2
:10335000139718968C91863019F426E036E002C057
:103360002EE236E041E2842E912C8C0E9D1E5901F6
:10337000CFA0D8A450E2E52EF12C8E010F5F1F4F95
:1033800029A53AA54BA55CA56DA57EA58FA598A9F5
:103390000995882309F499CF4FA158A59A0140E0D7
:1033A00050E060E070E0CB0129AB3AAB4BAB5CABDB
:1033B0006DAB7EAB8FAB98AF29A53AA54BA55CA5AD
:1033C0006DA57EA58FA598A9A9A8BAA8C12CD12CB6
:1033D000E12CF12C00E010E00E94332729A73AA746
:1033E0004BA75CA76DA77EA78FA798AB6FA178A509
:1033F000261A370A410851082114310441045104A6
:1034000009F092CFF301208C318C09A11AA12BA1D4
:103410003CA158016901E12CF12C00E010E0910180
:1034200040E050E060E070E080E090E00E94BE2666
:10343000E8960FB6F894DEBF0FBECDBFDF91CF91F7
:103440001F910F91FF90EF90DF90CF90BF90AF90C2
:103450009F908F907F906F905F904F903F902F90B4
:103460000895EF92FF920F93CF93DF93CDB7DEB71E
:103470006D970FB6F894DEBF0FBECDBF7C010097ED
:1034800011F480E0A7C0CE0101960E94FC208823A1
:10349000C1F389E092E00E94392389810E94512280
:1034A0008AE00E94422284E192E00E943923CE0108
:1034B00002960E942D238AE00E9442228DE192E032
:1034C0000E943923CE0105960E942D238AE00E9496
:1034D000422286E292E00E9439238B850E9451228B
:1034E0008AE00E9442228FE292E00E9439236C859A
:1034F0007D858E859F850E9472228AE00E944222ED
:103500008AE392E00E943923898990E00E94822216
:103510008FE20E944222888990E00E9482228AE003
:103520000E94422283E492E00E9439232A893B8947
:103530004C895D896E897F89888D998D04E10E940F
:103540002427B901CA010E94C8228CE492E00E949B
:10355000392380E592E00E9439238A8D90E00E9411
:1035600082228AE00E94422289E592E00E94392369
:103570008C8D90E00E9482228FE20E9442228B8DED
:1035800090E00E9482228AE00E94422282E692E03B
:103590000E9439238D8D90E00E9482228AE00E9451
:1035A00042228BE692E00E943923C7010E9448190B
:1035B000B901CA010E94C8228FE20E944222C701BB
:1035C0000E94FD18B901CA010E94C8228AE00E9427
:1035D000422281E06D960FB6F894DEBF0FBECDBFDC
:1035E000DF91CF910F91FF90EF900895EF92FF92AE
:1035F0000F931F93CF93DF93EC017B018A010BC0E4
:10360000B701C8010E94A427009729F4CE010E94A7
:10361000701481E006C0B801CE010E9481148111AE
:10362000EFCFDF91CF911F910F91FF90EF90089511
:10363000CF92DF92FF920F931F93CF93DF931F924E
:10364000CDB7DEB76C0188E1D6011D928A95E9F706
:10365000F12C25C00E944723982F883011F08F3716
:1036600089F4FF20E1F0FA94F601EF0DF11D1082CC
:1036700088E00E94422280E20E94422288E00E946A
:1036800042220DC099830E944222F601E00FF11FF1
:1036900099819A3011F4108207C09083F3940F2D12
:1036A00010E007311105B4F28F2D0F90DF91CF910B
:1036B0001F910F91FF90DF90CF9008955F926F92CE
:1036C0007F928F929F92AF92BF92CF92DF92EF92B2
:1036D000FF920F931F93CF93DF93CDB7DEB7609721
:1036E0000FB6F894DEBF0FBECDBF6C015B013A018F
:1036F0004901502E009719F420E030E066C06115B2
:103700007105D1F383E08017BCF307FF05C08091FA
:10371000FB018111F1CF3FC0A0E10A02F0011124A9
:10372000E254FE4F9F2F990F990B80E1E82EF12C68
:103730008E010F5F1F4F9F01492F592F692F792F3E
:10374000892FF60109958823B9F28D818111DFCF88
:10375000D3CF8D818093FB0189859A85AB85BC850C
:103760008093FC019093FD01A093FE01B093FF01B3
:103770008D859E85AF85B889809300029093010264
:10378000A0930202B093030203C08FEF8093FB016A
:1037900023EF31E01AC081E1E3EFF1E0DF011D9298
:1037A0008A95E9F7D092F401C092F301B092F60144
:1037B000A092F5017092F8016092F7019092FA01DF
:1037C0008092F90157FEC5CFE0CFC90160960FB6D0
:1037D000F894DEBF0FBECDBFDF91CF911F910F9147
:1037E000FF90EF90DF90CF90BF90AF909F908F9021
:1037F0007F906F905F900895009721F0FC011086F4
:1038000081E0089580E008958EBD0DB407FEFDCFE0
:103810008DB58F778DBD08958FEF8EBD0DB407FEEA
:10382000FDCF8DB58F778DBD8EB508951F93CF9346
:10383000DF9300D000D0CDB7DEB7182F4C835B8369
:103840006A8379830E940C1C812F80640E94041C6F
:103850007981872F0E94041C6A81862F0E94041C94
:103860005B81852F0E94041C4C81842F0E94041CC4
:10387000112319F0183041F405C085E90E94041C99
:103880001AE004C087E8FACF8FEFF8CF0E940C1C33
:103890008F3F11F41150D1F70F900F900F900F90B0
:1038A000DF91CF911F91089586B18295817091E04B
:1038B0008927089586B185FB882780F991E08927BB
:1038C0000895EF92FF920F931F9380910D02811143
:1038D0001FC02091050230910602409107025091CD
:1038E00008026091090270910A02E12C82E0F82E30
:1038F0000EE012E080910B0290910C020E940C1FCE
:10390000882321F081E080930D0203C080E001C094
:1039100081E01F910F91FF90EF9008952F923F92B9
:103920004F925F926F927F928F929F92AF92BF92CF
:10393000CF92DF92EF92FF920F931F93CF93DF937B
:10394000CDB7DEB760970FB6F894DEBF0FBECDBF20
:103950002B833E8349875A876B877C878D879E8719
:10396000188B0F87FA82E982C9C0BE8081E0B82235
:103970009B819C83BD82292F3E8149855A856B8519
:103980007C858D859E85A22EC12CD12CE12CF12C1D
:1039900000E010E00E94482739014A011B018F8393
:1039A0009887412C92E0592EEC81FD814E1A5F0AD6
:1039B00089819A818415950508F42C01A09005024F
:1039C000B0900602C0900702D0900802E090090271
:1039D000F0900A0200910B0210910C029301A401D5
:1039E000B1018F8198850E94512709F458C00E9427
:1039F000611C882309F489C02A988091040282FFFF
:103A00000CC09301A401B1018F81988509E00E9447
:103A10002427BA01422F532F02C0A301B40181E130
:103A20000E94161C882311F02A9A6FC00E940C1C59
:103A30008E3FE1F70EE012E00E940C1CF80181932A
:103A40008F01F4E00E301F07B9F760920502709203
:103A50000602809207029092080220920902309298
:103A60000A028F8180930B02988590930C028C81BF
:103A70009D81825F9D4FA201BC018F8598890E9424
:103A80008927EF85F889E40DF51DF88BEF870E94F3
:103A90000C1C0E940C1C2A9A0E940C1C10C08C81C9
:103AA0009D81825F9D4FA201BC018F8598890E94F4
:103AB00089278F859889840D951D988B8F87E9813B
:103AC000FA81E419F509FA83E9832B813E8149855E
:103AD0005A856B857C858D859E855201C12CD12CA4
:103AE000E12CF12C00E010E00E9433272B833E8371
:103AF00049875A876B877C878D879E8789819A81C2
:103B0000892B09F032CF81E001C080E060960FB6CA
:103B1000F894DEBF0FBECDBFDF91CF911F910F9103
:103B2000FF90EF90DF90CF90BF90AF909F908F90DD
:103B30007F906F905F904F903F902F9008952F92BD
:103B40003F924F925F926F927F928F929F92AF922D
:103B5000BF92CF92DF92EF92FF920F931F93CF937A
:103B6000DF93CDB7DEB762970FB6F894DEBF0FBE16
:103B7000CDBF2B833C834D835E831B012C011887B3
:103B80000F833701DA82C982BA86A986012B11F424
:103B900080E04AC0E114F104D9F329813A812E155D
:103BA0003F05B0F349855A85452B91F39701EB8684
:103BB0003C8773010F8118852B813C814D815E818B
:103BC000B101C2010E948E1C882311F374010B8184
:103BD0001C812D813E81A101B2018F819885E985EB
:103BE000FA8509958823F9F02B813C814D815E810E
:103BF000B101C201AB84BC84C12CD12CE12CF12CCD
:103C000000E010E00E9433272B833C834D835E83CA
:103C10001B012C0129813A81261937093A8329830E
:103C20002615370530F681E062960FB6F894DEBFB0
:103C30000FBECDBFDF91CF911F910F91FF90EF90FD
:103C4000DF90CF90BF90AF909F908F907F906F90BC
:103C50005F904F903F902F900895CF92DF92EF9218
:103C6000FF920F931F93CF93DF933C983D98239A35
:103C7000259A229A24982A9A83E58CBD8DB58E7F49
:103C80008DBD109204020E94541C811101C0B9C064
:103C9000CAE00E940C1CC150E1F72A98C0E0D2E0B3
:103CA00040E050E0BA0180E00E94161C813019F01B
:103CB0002197B1F761C04AEA51E060E070E088E026
:103CC0000E94161C82FD15C00E940C1C0E940C1C38
:103CD0000E940C1C80FF95C00E940C1C8A3A09F0BF
:103CE00090C080910402826080930402C0E0D0E81A
:103CF00012C040E050E0BA0187E30E94161C40E089
:103D000050E0BA0189E20E94161C82FDEFCF80913B
:103D100004028160E9CF80910402982F9370A9F08A
:103D200081FD04C0C12CD12C760105C0C12CD12C41
:103D3000E12C30E4F32E40E050E0BA0187E30E942A
:103D4000161CB701A60189E204C040E050E0BA01A8
:103D500081E00E94161C80FF03C02197E1F60CC091
:103D6000C0910402C1FF17C040E050E0BA018AE3ED
:103D70000E94161C882311F02A9A43C00E940C1C32
:103D800086FF03C0C460C09304020E940C1C0E9402
:103D90000C1C0E940C1C40E052E060E070E080E1EE
:103DA0000E94161C2A9A81112CC08CB58C7F8CBD68
:103DB0008DB581608DBD8FEF8093050280930602E3
:103DC00080930702809308028093090280930A027D
:103DD00080930B0280930C0281E080930D02E12C12
:103DE00022E0F22E0EE012E020E030E040E050E071
:103DF00060E070E080E090E00E948E1C91E0811114
:103E000001C090E0892FDF91CF911F910F91FF901A
:103E1000EF90DF90CF9008952F923F924F925F9254
:103E20006F927F928F929F92AF92BF92CF92DF92CA
:103E3000EF92FF920F931F93CF93DF93CDB7DEB72F
:103E400066970FB6F894DEBF0FBECDBF2D8B3E87B1
:103E50004F87588B698B7A8B8B8B9C8B1A87098742
:103E600037010E945A1C882309F4FEC002C1BE8497
:103E700021E0B2223D893983BA82232F3E854F85C6
:103E8000588969897A898B899C89A22EC12CD12C69
:103E9000E12CF12C00E010E00E944827322E832E06
:103EA000942E5E8B262E7B878C879D87412C52E03B
:103EB000552E49815A81441A550A6414750408F430
:103EC0002301A0900502B0900602C0900702D09096
:103ED0000802E0900902F0900A0200910B02109192
:103EE0000C02232D382D492D5E89622D7B858C8512
:103EF0009D850E945127A1F10E94611C811101C082
:103F0000B8C069817A81672BC9F4411472E0570601
:103F1000A8F03092050280920602909207028E89E4
:103F200080930802209209029B8590930A02EC85F7
:103F3000E0930B02FD85F0930C0212C0E12C42E0ED
:103F4000F42E0EE012E0232D382D492D5E89622DCE
:103F50007B858C859D850E948E1C8111DACF89C05E
:103F600029853A852E50324031F42A9880910402F6
:103F700082FD12C020C029813A81225F3D4FA201FB
:103F800069857A85C9010E94892710920D026414FF
:103F9000750459F781E06EC0232D382D492D5E89B7
:103FA000622D7B858C859D8509E00E942427BA01BE
:103FB000422F532F04C0432D582D692D7E8988E14F
:103FC0000E94161C882311F02A9A53C08EEF0E947B
:103FD000041C0EE012E0F80181918F010E94041C84
:103FE000F4E00E301F07B9F78FEF0E94041C8FEF2B
:103FF0000E94041C0E940C1C8F3FE1F70E940C1CC5
:104000002A9A29853A85240D351D3A8729879201F8
:1040100040E050E060E070E0CB0149823A834B839E
:104020005C836D837E838F8398872D893E854F8542
:10403000588969897A898B899C89A980BA80C12C21
:10404000D12CE12CF12C00E010E00E9433272D8BC5
:104050003E874F87588B698B7A8B8B8B9C8B641830
:10406000750831E030930D026114710409F0FFCE40
:1040700091CF80E066960FB6F894DEBF0FBECDBF3D
:10408000DF91CF911F910F91FF90EF90DF90CF9034
:10409000BF90AF909F908F907F906F905F904F9068
:1040A0003F902F9008952F923F924F925F926F9280
:1040B0007F928F929F92AF92BF92CF92DF92EF92B8
:1040C000FF920F931F93CF93DF93CDB7DEB7639724
:1040D0000FB6F894DEBF0FBECDBF522E432E342E46
:1040E000252E69837A838B839C833801FB8AEA8A35
:1040F000DF82CE82B98AA88A0115110511F480E009
:1041000062C02E813F81232BD1F331E03D834A8968
:104110005B89452B09F44EC01D824CC0E888F988A4
:10412000052D142D232D322D49815A816B817C81DF
:10413000C301EE81FF8109954C01009711F481E0E4
:1041400042C0FD81F11105C02A893B892817390732
:10415000B0F274018301252D342D432D522D698138
:104160007A818B819C810E940C1F882341F29401EB
:1041700088863987252D342D432D522D69817A81EA
:104180008B819C81A884B984C12CD12CE12CF12C89
:1041900000E010E00E943327522E432E342E252EAD
:1041A00069837A838B839C834A895B89481959097F
:1041B0005B8B4A8B5D815111B1CF6A897B89672BFB
:1041C00009F0ACCFBCCF63960FB6F894DEBF0FBE3C
:1041D000CDBFDF91CF911F910F91FF90EF90DF90B6
:1041E000CF90BF90AF909F908F907F906F905F9097
:1041F0004F903F902F9008952F923F924F925F9251
:104200006F927F928F929F92AF92BF92CF92DF92E6
:10421000EF92FF920F931F93CF93DF932C010097A0
:1042200009F413C00E94541C882379F08DE1F20137
:1042300011928A95E9F72A9840E050E0BA018AE0A5
:104240000E94161C882319F02A9A80E0FCC00E9464
:104250000C1C8E3FE1F7D42CC42DD52DB0E6EB2EEF
:10426000F12C1C2F1D190E940C1C082F183028F44B
:10427000133090F4112359F00DC01D3018F419308B
:1042800080F40CC01D3031F11E3091F528C0F201D0
:1042900080832EC088832CC089832AC0F201828744
:1042A00027C010E020E030E00E2C04C0000F111FEA
:1042B000221F331F0A94D2F7F20143855485658586
:1042C0007685402B512B622B732B43875487658750
:1042D00076870EC00295007FF201078709C0982FEC
:1042E00092959F70F2018785892B87870F70008BCD
:1042F0002196F8E0EF1AF10880EDE8168FEFF80646
:1043000009F0AFCF40E050E0BA0189E00E94161CEE
:1043100081119ACF0E940C1C8E3FE1F7C0E0212C46
:10432000312CD0E0612C772473940E940C1CCE3089
:10433000A9F486FF02C0F201718E85FF02C0F2016E
:10434000728E84FF02C0F201738E8C7090E095959E
:10435000879595958795F201848F6FC0909104029F
:1043600091FF24C0C73021F038F0CA3028F401C0D2
:104370008F73322C2224282AC93009F05EC0FFEF47
:104380002F1A3F0A910140E050E060E070E080E0C9
:1043900090E003E10E941527F201218B328B438BC1
:1043A000548B658B768B878B908F47C0C730B1F06D
:1043B00030F4C53051F0C63009F03FC00AC0C930F2
:1043C000E1F090F0CA30C9F51CC0EFE06E2E682213
:1043D00034C073E0372E3822212C2FC0282A220C1B
:1043E000331C220C331C29C08295869586958370D8
:1043F000282AFFEF2F1A3F0A20C0D82FD370DD0FD5
:104400001CC0881F8827881FD82B810120E030E03E
:10441000862D90E08D0F911D029604C0000F111F94
:10442000221F331F8A95D2F7F201018B128B238B47
:10443000348B158A168A178A108ECF5FC23109F025
:1044400074CF2A9A81E0DF91CF911F910F91FF9055
:10445000EF90DF90CF90BF90AF909F908F907F9024
:104460006F905F904F903F902F9008951092C500ED
:1044700087E68093C40086E08093C20088E9809339
:10448000C1000895CF93C82F8A3019F48DE00E949F
:1044900042228091C00085FFFCCFC093C600CF911F
:1044A0000895CF93C82F82958F708A3010F4805D65
:1044B00001C0895A0E9442228C2F8F70282F30E031
:1044C0002A30310514F4805D01C0895ACF910C94D3
:1044D0004222CF93C82F892F0E9451228C2FCF9137
:1044E0000C945122CF92DF92EF92FF926B017C01EC
:1044F000C7010E946922C601FF90EF90DF90CF9024
:104500000C946922AF92BF92CF92DF92EF92FF920A
:104510000F931F93CF93DF931F92CDB7DEB77C012C
:1045200005E010E020E080E1A82E87E2B82E9AE0B6
:10453000C92ED12CC701B5010E947426862F6111A6
:1045400006C0211104C091E0A916B10431F4805DC8
:1045500069830E94422221E069816A9DC0016B9DAE
:10456000900D1124E81AF90AC501B6010E947426BB
:104570005B0101501109F1F60F90DF91CF911F916E
:104580000F91FF90EF90DF90CF90BF90AF90089584
:104590003F924F925F926F927F928F929F92AF92D3
:1045A000BF92CF92DF92EF92FF920F931F93CF9320
:1045B000DF931F92CDB7DEB74B015C010AE010E03C
:1045C000312CC12C2AECD22E2AE9E22E2BE3F22E3A
:1045D0003AE0432E512C612C712CC501B401A70186
:1045E00096010E949C26822F211108C0311006C01E
:1045F00091E0C916D104E104F10439F4805D298306
:104600000E944222332433942981A22FB0E0A701D3
:1046100096010E945926861A970AA80AB90AC70164
:10462000B601A30192010E949C2669017A01015002
:10463000110999F60F90DF91CF911F910F91FF9083
:10464000EF90DF90CF90BF90AF909F908F907F9032
:104650006F905F904F903F900895CF93DF93EC0160
:1046600002C00E94422289918111FBCFDF91CF913C
:104670000895CF93DF93EC01FE0121968491882366
:1046800019F00E944222F8CFDF91CF9108959FB791
:10469000789407C083B7816083BF889583B78E7F86
:1046A00083BF8091C00087FFF5CF9FBF8091C60078
:1046B0008D3009F48AE008951895CF93DF93CDB734
:1046C000DEB7C658D1090FB6F894DEBF0FBECDBF16
:1046D00083B7817F83BF0E943622AA24A394B12C82
:1046E000AC0EBD1E23E6622E712C6C0E7D1E86E084
:1046F000680E711C33E6432E512C4C0E5D1E93E068
:10470000490E511C0E942D1E811103C088E690E0C5
:104710003AC000E023E530E24CE05FE16FE97DE183
:104720008EE89CE10E945E1B1C01009789F40FEF4C
:1047300023E530E24CE05FE16FE97DE18EE89CE14A
:104740000E945E1B1C01009719F486E890E01BC0D4
:10475000C1010E94200B4C01009719F480EA90E0FF
:1047600012C0AE014E5C5F4F6DE071E00E94A41577
:10477000BE016E5C7F4FC4010E9432148C01009711
:1047800029F48BEB90E00E943923BCCFC4010E9436
:10479000311AA3E6B0E0AC0FBD1F1496CD57DF4F22
:1047A000B983A883C358D0408EE30E94422280E29E
:1047B0000E944222CE018D599F4F0E94181B8823D0
:1047C00099F36AED70E0CE018D599F4F0E947227D8
:1047D000892B09F44DC243E050E06FED70E0CE014B
:1047E0008D599F4F0E947B27892BD9F4A7968FADB7
:1047F000A7978823C9F2A501B201C8010E94F61A41
:10480000882361F0B501C4010E9432147C01009735
:1048100029F0C8010E946A148701C6CF83EE90E098
:1048200019C169EF70E0CE018D599F4F0E94722728
:10483000892B31F12CC0F50101900020E9F7319767
:10484000EA19FB0984E2F82EFE1AC5010E942D2305
:1048500089A184FF02C08FE201C080E20E9442224F
:1048600004C080E20E944222FA94F110FACF6EA1B5
:104870007FA188A599A50E94C8228AE00E944222B1
:10488000B501C8010E9481148111D5CF8DCF44E0BC
:1048900050E06CEF70E0CE018D599F4F0E947B2756
:1048A000892B09F0ACC0A8968FADA897882309F48E
:1048B0007BCFA501CD57DF4F68817981C358D040A8
:1048C000C8010E94F61A882359F0B501C4010E945C
:1048D000C50DC158DF4F99838883CF57D04006C09C
:1048E000C158DF4F19821882CF57D040C158DF4FCF
:1048F000E881F981CF57D040EF2B09F066C081E005
:1049000091E00E943923CD57DF4F88819981C358A8
:10491000D040A8C1C701B601CB57DF4F2883C55887
:10492000D040CA57DF4F3883C658D0400E94722209
:104930008AE30E944222CF57DF4FB982A882C15832
:10494000D040CB57DF4F2881C558D040CA57DF4FE2
:104950003881C658D0402A0D3B1D80E2CB57DF4F2F
:104960002883C558D040CA57DF4F3883C658D04037
:104970000E944222CF57DF4FA881B981C158D04051
:104980008D91CF57DF4FB983A883C158D0400E9483
:104990005122CB57DF4F2881C558D040CA57DF4F2F
:1049A0003881C658D040CF57DF4FE881F981C158D0
:1049B000D040E217F30789F68AE00E944222F8E02D
:1049C000CF0ED11CE11CF11C03C0C12CD12C7601EF
:1049D00048E050E0B501C158DF4F88819981CF5739
:1049E000D0400E940B0E9C01181619060CF492CFB1
:1049F000C158DF4F88819981CF57D040F9C060E11D
:104A000071E0CE018D599F4F0E947227892B41F48E
:104A1000C4010E94311A8111C7CE85E191E018C10D
:104A200043E050E06EE271E0CE018D599F4F0E944D
:104A30007B27892BD1F4A7968FADA797882309F4FC
:104A4000B3CEA501B201C8010E94F61A811106C0B9
:104A500082E391E00E943923C20104C1B501C4017F
:104A60000E948C168823A1F39FCE46E050E068E4B4
:104A700071E0CE018D599F4F0E947B27892B81F4D5
:104A8000AA968FADAA97882309F48ECEA501B3010B
:104A9000C8010E943016811187CE8FE491E0C5C015
:104AA00043E050E065E671E0CE018D599F4F0E94D2
:104AB0007B27892BE1F4A7968FADA797882309F46C
:104AC00073CEF2017F018191803209F4DBC0811144
:104AD000F9CF6ACE97012F5F3F4FA801B501C401FE
:104AE0000E943417811160CE89E691E0B3CF46E091
:104AF00050E06DE771E0CE018D599F4F0E947B27FA
:104B0000892B09F078C0AA968FADAA97882309F45B
:104B10004BCEF3012E2F9F2F8191803209F4BCC020
:104B20008111F8CF41CEB501C4010E94C50D7C01B1
:104B300002C0E12CF12CE114F10421F020E030E07E
:104B4000A90115C084E891E070C0AAE0B0E00E941D
:104B500059262E2F332727FD30952053310944271E
:104B600037FD4095542F260F371F481F591FD60178
:104B7000ED916D018E2F80538A3038F3EF962CAF74
:104B80003DAF4EAF5FAFEF9740E0BE0165587F4F3E
:104B9000C7010E94C21381110BC083E991E00E94FA
:104BA0003923C3010E942D238AE00E9442221FC0A4
:104BB0008CE30E94422280E20E944222CE018D5963
:104BC0009F4F0E94181BD82E882389F0482F50E051
:104BD000BE016D597F4FC7010E94C80F4D2D50E097
:104BE0008417950729F385EA91E00E943923C701CC
:104BF0000E94050ED9CD46E050E06CEB71E0CE018D
:104C00008D599F4F0E947B27892B99F4AA968FADCF
:104C1000AA97882309F4C8CDA501B301C8010E9451
:104C2000AB178111C1CD83EC91E00E943923C30100
:104C300019C06EED71E0CE018D599F4F0E94722711
:104C4000892B49F40E94611C8111AECD83EE91E065
:104C50000E943923A9CD87EF91E00E943923CE012C
:104C60008D599F4F0E942D238AE00E9442229CCDA5
:104C7000C8010E946A14C4010E94BF0DC1010E94B4
:104C8000FC1B40CDF7011082A501B201C8010E94B2
:104C9000F61A81111FCF28CFC22ED92ED6011D9210
:104CA0006D01A501B301C8010E94F61A81113BCF25
:104CB00040CF0E946627A59F900DB49F900DA49FA2
:104CC000800D911D11240895DB018F939F930E9405
:104CD0005926BF91AF91A29F800D911DA39F900D6A
:104CE000B29F900D11240895AA1BBB1B51E107C070
:104CF000AA1FBB1FA617B70710F0A61BB70B881F6C
:104D0000991F5A95A9F780959095BC01CD010895FA
:104D100097FB072E16F4009407D077FD09D00E9468
:104D2000742607FC05D03EF4909581959F4F089519
:104D3000709561957F4F0895A1E21A2EAA1BBB1BA7
:104D4000FD010DC0AA1FBB1FEE1FFF1FA217B30757
:104D5000E407F50720F0A21BB30BE40BF50B661F6D
:104D6000771F881F991F1A9469F760957095809531
:104D700090959B01AC01BD01CF010895DF93CF93C6
:104D80001F930F939A9DF02D219FF00D8B9DF00D99
:104D90008A9DE02DF10D039FF00D029FE00DF11DA6
:104DA0004E9DE00DF11D5E9DF00D4F9DF00D7F932A
:104DB0006F93BF92AF925F934F93D5010E94662786
:104DC0008B01AC01D7010E946627EB01E80FF91FA8
:104DD000D60122D02F913F91D6010E946627C60F9F
:104DE000D71FE81FF91FAF91BF9116D02F913F91A8
:104DF0000E946627C60FD71FE81FF91FD6010E9421
:104E00006627E60FF71F9801BE01CF0111240F910D
:104E10001F91CF91DF9108950E946627460F571F7B
:104E2000C81FD91F08F4319608950F930F7351F0DE
:104E3000220F331F441F551F661F771F881F991F9E
:104E40000A95B1F70F9108950F930F7351F096954E
:104E500087957795679557954795379527950A953F
:104E6000B1F70F9108952A0D3B1D4C1D5D1D6E1D60
:104E70007F1D801F911F08950024A7FD00942A0F15
:104E8000301D401D501D601D701D801D901D08951A
:104E90002A193B094C095D096E097F09800B910BAA
:104EA00008952A153B054C055D056E057F058007B5
:104EB000910708950024A7FD00942A1730054005A6
:104EC000500560057005800590050895A29FB0010A
:104ED000B39FC001A39F01D0B29F700D811D11240B
:104EE000911D0895FB01DC018D9105908019011041
:104EF000D9F3990B0895FB01DC014150504030F08B
:104F00008D910590801919F40020B9F7881B990B31
:104F10000895FB01DC0102C001900D924150504008
:104F2000D8F70895DC0101C06D9341505040E0F77F
:104F30000895FC018191861721F08823D9F79927DC
:104F400008953197CF010895FB01DC018D91019007
:104F500080190110D9F3990B0895FB01DC01415030
:104F6000504030F08D910190801919F40020B9F76C
:104F7000881B990B0895FB01DC014150504048F01B
:104F800001900D920020C9F701C01D924150504080
:104F9000E0F70895FC0181E090E00190061609F425
:0E4FA000CF010020D1F701970895F894FFCFBC
:104FAE0001030507090E10121416181C1E2F0000FF
:00000001FF
